:03000000020B8D63
:100B8D0078FFE4F6D8FD907FA1E404F0902000906A
:100B9D0020007F007E08E4F0A3DFFCDEFA75814AB9
:030BAD00020BEB4D
:03004300020100B7
:1014B2007400F58690FDA57C05A3E582458370F94D
:0114C2002207
:0514C30074EF529122BC
:1014C800907FD6E04480F0438701000000000022AE
:100AE3001201100100000040BF0AE90301000102E6
:100AF300000109024A00010100C0140904000008B2
:100B0300FF000000070581024000000705010240C5
:100B130000000705820240000007050202400000B2
:100B23000705830240000007050302400000070594
:100B33008403010032070504024000000403090492
:100B430010034400650056006100530079007300F0
:100B530038034400650056006100530079007300B8
:100B630020002D0020004900320043002B004900E3
:100B73002F004F00200049006E00740065007200D2
:0A0B830066006100630065000000D9
:101716001207752003033001031212D012175780E7
:01172600F2D0
:1011460049276D206120557362493263496F2062D9
:101156006F61726420616E642049276D20616C693D
:10116600766521202049276D2020616161616C6CC4
:101176006C6C6969696969767676766565656565B3
:051186002121210A00F7
:1011D00044210000000000502104039F250D99497F
:0A11E000411F011911C163856171FF
:100FB500D2021214637D647C00E4FF1216F0C20AAB
:100FC500121737E4907F93F0907F94F0907F95749B
:100FD50007F0E4907F9CF0907F9DF0907F9E7408D1
:100FE500F0E4907F96F0907F97F0907F987408F0EA
:0B0FF5007BFF7A117946E4FD021640F4
:0E1757003006031216ADE53E6003121409229F
:0300FC007F01225F
:03178F007F0122B5
:0911EA00C106C105013E00C1046B
:07000300EF25E02442F82282
:10146300C2A9C28C5389F0438901758AE0758CB196
:10147300E4FF120003E4F608F6743F2FF876010F39
:07148300BF03EFD28CD2A9D8
:01148A00223F
:10172700743F2FF8E6B4020576017F01227F00227D
:1016F000C28C120003A60408A605743F2FF8E4F676
:03170000D28C2266
:03000B0002118B54
:0D118B00C0E0C0D075D000C000C004C00797
:10119800C28C758AE0758CB1D28C7F031F743F2F87
:1011A800F8E6701612000308E61618700116148681
:0D11B800044C7006743F2FF87602EF70DFD4
:0B11C500D007D004D000D0D0D0E03222
:10166000300402B20A907F9BE054F7F53D200A0354
:09167000433D08907F98E53DF030
:01167900224E
:1016AD00E53E70127D08FC7F011216F0753E01D2E9
:0716BD000A121660C20622AA
:101409007F01121727EF6024E53E24FE6011047066
:10141900137D087C007F011216F0753E028008E4F6
:0D142900F53E8003E4F53EC20A1216602273
:10105B00907FECE0F45480FFC4540FFFE054072F53
:10106B0025E024B4F582E4347FF58322907FB4E04D
:10107B004401F022E4907F00F0A3F0907FB574025E
:10108B00F022AA06A9077B018B228A238924EA492D
:10109B0022E4F525F524F523F52222E47B01FAF968
:0410AB00F80202C97C
:1007750012109CC201C202C200C203902114740A65
:10078500F0A374E3F0A3740AF0A374F5F0A3740B5B
:10079500F0A3743FF0120FB5D2E843D820907FAF95
:1007A500E0440154F7F0907FAEE0441DF0907FAC3B
:1007B500741EF0907FADF0D2AF2003392003057F82
:1007C500011210AF12109C7F407E927D047C00AB1D
:1007D50025AA24A923A822C31202D650DC2003D9B6
:1007E500AF25AE24AD23AC221210A68F258E248D05
:0807F500238C2280D2538EF800
:0107FD0022D9
:1012D000300307D206121307C203300129C20112DC
:1012E00000FCEF6021C204C20A1216601214C8206A
:1012F0000207907FD6E020E7F312167A12178FD2FA
:071300000A121660D204225C
:10130700907FE8E0546024E0602524E0601924E041
:10131700601D24607016907FE8E030E70512013FFA
:10132700800D120C3080081217708003121077900E
:071337007FB4E04402F02244
:10013F00907FE9E07002416E24F87002416B24FE5B
:10014F007002416824046002419A121792EF600214
:10015F00419D907FEBE024FE601A14603224026010
:10016F00024165902114E0907FD4F0902115E0902A
:10017F007FD5F022907FEAE0FF12110012108D6000
:10018F000BEE907FD4F0EF907FD5F0220210779096
:0E019F007FEAE0FF1213D912108D7002416248
:1001AD00AB228B298A2A892B12029EF52C907FEE89
:1001BD00E0FFE52CD39F4003E0F52CE52C700241C8
:1001CD0056E4F528F527F526F525E52CC394405082
:1001DD0004AF2C80027F40E4FCFDFEAB28AA27A9CA
:1001ED0026A825C31202D65030E52B2528F582E529
:1001FD002A3527F583E0FF74002528F582E4347F46
:10020D00F583EFF0AF28AE27AD26AC251210A68FE3
:10021D00288E278D268C2580B1E52CC39440500463
:10022D00AF2C80027F40907FB5EFF0E52CC394405A
:10023D005004AF2C80027F40C3E52C9FF52C907F9E
:10024D00B4E020E20221C880F5E4907FB5F0907F04
:04025D00B47402F083
:100261002202107702107702178102177A1217956E
:10027100EF6029907FE8E0247F600A14600A24027D
:10028100701402107F02107F12105BE05401907F06
:0C02910000F0E4021084021077121077D5
:01029D00223E
:100C3000907FE9E014601424FE605A24FA600924CD
:100C4000FE600281C4021765020036121798EF6039
:100C500076907FE8E024FE60112402706A907FEABB
:100C6000E0B40103C20222021077907FEAE0702212
:100C700012105BE4F0907FECE05480FF13131354E8
:0A0C80001FFFE054072F907FD7F00C
:030C8A00E4F5226C
:100C8D00E04420F02202107712179BEF602C907F2A
:100C9D00E8E024FE601124027020907FEAE0B401A8
:100CAD0003D20222021077907FEAE0700712105BE8
:0B0CBD007401F0220210771210772261
:0A17700012004EEF700312107722F2
:0300330002004682
:0400460053D8EF326A
:0710AF00907FD6E04408F039
:0310B600E4F52638
:0410B900E054FBF014
:0310BD00E4F52631
:1010C000E04408F0EF6004E04402F07FDC7E0512AB
:1010D00016C4907F92E030E3077FDC7E051216C4D1
:1010E000907FAB74FFF0907FA9F0907FAAF05391AE
:0810F000EF907FD6E054F7F009
:0310F800E4F526F6
:0510FB00E04404F022B6
:1016C4008E278F28E5281528AE27700215274E602F
:0716D400051214B280EE22A2
:10167A00907FD6E030E712E04401F07F147E00123A
:0A168A0016C4907FD6E054FEF02253
:10110000E4FE902116E0FCA3E0FD8D828C83A3E039
:101110006402702DAB060EEBB50705AF05AE0422D9
:101120008D828C83A3A3E0F52DA3E0F52E622DE53F
:101130002D622EE52E622D2DFBE52D3CFCAD0380AE
:05114000C97E007F00E4
:011145002287
:0213D900A90762
:1013DB00902118E0FEA3E0FF8F828E83A3E06403CD
:1013EB007017AD0119ED7001228F828E83E07C00A6
:0D13FB002FFDEC3EFEAF0580DF7E007F0081
:0114080022C1
:1003F1004572726F72202D2056525F476574203D01
:100401002064656661756C742063617365202D20BD
:100411003078000A004572726F72202D2056525FAB
:10042100536574203D2064656661756C7420636159
:100431007365202D2030780056525F476574496FEF
:10044100436F6E6669672829202D20307800565247
:100451005F536574496F436F6E6669672829202D64
:100461002030780056525F47657452656164496F68
:10047100506F7274732829202D2030780056525FF6
:100481005365745772697465496F506F727473283C
:1004910029207B3078007D207B3078002C2030783B
:1004A100007D0A0056525F476574526561644932A6
:1004B100433A00204932435F5452414E535F4E4FFD
:1004C10041445220307800207B2E2E2E7D00204981
:1004D10032435F5452414E535F3841445220307889
:1004E10000204932435F5452414E535F31364144FB
:1004F1005220307800204932435F5452414E535FBD
:100501004E4F4144525F4E5320307800206465665F
:1005110061756C742063617365206572726F72001E
:1005210056525F53657457726974654932433A0094
:0711F30044211B0000000075
:100EF500907F00F07BFF7A0479147D0122E0F508EC
:100F05005509F50B420AE508F44509F50B520A2285
:100F1500907FEAE0F511A3E0F50CA3E0FDA3E0F571
:100F25000DEDF50EA3E0FDA3E0F50FEDF510229014
:100F35007F9EE054F0FFC4540F22E0907F00F090B4
:100F45007FB57401F0FF22AA12A9137B0122AA140E
:050F5500A9157B01223B
:031792007F0022B3
:0D003600D204907FEAE090211FF07F0122AC
:07177A0090211F120F3F2216
:0B176500907FEAE090211AF07F012243
:0717810090211A120F3F2214
:031795007F0122AF
:031798007F0122AC
:03179B007F0122A9
:10004E00E4F52290211B1202E7E47B01FAF9F81283
:10005E0002C990211B1202F3907FE8E030E74AA319
:10006E00E0240F601514601914601D24F460202420
:10007E000F7025120F5A8F2201EA1210008F228064
:10008E005B1208008F22805412179E8F22804D1211
:10009E000D5F8F22C20680447BFF7A0379F1120036
:1000AE00ED120EF91216408033907FE9E0240F60B6
:1000BE000E14601224027015120E868F22801D12ED
:1000CE000A018F2280161205318F22800F7BFF7A54
:0E00DE000479161200ED120EF9121640AF2230
:1000EC00227D01121640907FE9E0FF7D010212543F
:100F5A007BFF7A0479397D011216407D017FFF12E9
:100F6A001254907F0374FFF0120F34F4FF7D0112C4
:100F7A001254120F34F4907F02F0907F9D120FAD3D
:100F8A00907F9DE0F4907F01F0907F9C120FAD90CE
:100F9A007F9CE0F4120EF5121640907FB57404F0AF
:0B0FAA007F0122E0F4FF7D01021254E1
:100E86007BFF7A04794F7D01121640907FB4E020F3
:100E9600E3F9907FC5E0F523907EC3120EEE907EB7
:100EA600C2120EEE907EC1E0FF7D01121254907EBA
:100EB600C0E0FF7D01121254120EF9121640907E08
:100EC600C0E0F4907F9CF0907EC1E0F4907F9DF0AE
:100ED600907EC2E0F4FFC454F0FF4307085307F8BE
:070EE600907F9EEFF07F01F9
:080EED0022E0FF7D0102125416
:101000007BFF7A0479657D011216407D01E4FF12B1
:101010001254E4907F03F0907F9B120F37FF7D0105
:10102000121254907F9B120F37907F02F0907F9A9C
:10103000121054907F9AE0907F01F0907F991210E7
:1010400054907F99E0120EF5121640907FB574040B
:0B105000F07F0122E0FF7D010212543E
:100A0100907FB4E020E3F9907FC5E0F5237BFF7A86
:100A110004797E7D011216407D01AF231212547BB1
:100A2100FF7A0479977D01121640907EC3120ACE97
:100A3100907EC2120ACE907EC1120AD5907EC0125B
:100A41000AD57BFF7A04799D7D01121640907EC7FD
:100A5100120ADC907EC6120ADC907EC5E0FF7D01A1
:100A6100121254907EC4E0FF7D011212547BFF7A72
:100A71000479A27D01121640907F99E0F50A907EDB
:100A8100C0E0F509907EC4120F02907F96E50AF04E
:100A9100907F9AE0F50A907EC1E0F509907EC5123B
:100AA1000F02907F97E50AF0907F9BE0FFC4540FFF
:100AB100F50A907EC2E0F509907EC6E0540F120F50
:0C0AC10003E50AC454F0907F98F07F0118
:100ACD0022E0FF7D01021254E0FF7D01021254E08D
:060ADD00FF7D010212542E
:10080000E4F523752405120F157E7F7F0075127F96
:100810007513007BFF7A0479A57D01121640E5115E
:1008200014603314605714607D2403600201CB7B95
:10083000FF7A0479B41208E9AF241524EF7002019D
:10084000D6120F4C851033AD0C7F03120655BF0135
:10085000E775230101D67BFF7A0479CF1208E9AF4F
:10086000241524EF6070120F4CE50EF52985102A2F
:10087000AD0C121436BF01E775230101D67BFF7A58
:100880000479E2120900AF241524EF6049120F4CDD
:10089000850D29850E2A85102BAD0C12133EBF0144
:1008A000E575230180307BFF7A0479F6120900AFE9
:1008B000241524EF6020120F4C851033AD0C7F04FB
:1008C000120655BF01E9752301800B7BFF7A05797C
:1008D0000D7D01121640E5236006907FB5E510F00E
:0808E000120EF9121640AF23BD
:1008E800227D011216407D01AF0C1212547BFF7A53
:1008F8000479C87D010216407D011216407D01AFC2
:0F0908000C1212547BFF7A0479C87D010216404D
:10053100E4F523752405120F15907FB4E020E3F94B
:10054100907FC5E0B51009D39440E50F94004003B6
:10055100AF23227E7E7FC075147E7515C07BFF7A26
:100561000579217D01121640E5111460331460569E
:1005710014607A24036002C1137BFF7A0479B412F8
:100581000627AF241524EF7002C11E120F538510E8
:1005910033AD0CE4FF120655BF01E7752301C11EFF
:1005A1007BFF7A0479CF120627AF241524EF606D03
:1005B100E50EFD120F5385102AAF0C1213A8BF01CF
:1005C100E8752301C11E7BFF7A0479E212063EAF72
:1005D100241524EF6047120F5385102BAD0EAC0D7F
:1005E100AF0C121373BF01E775230180307BFF7AD3
:1005F1000479F612063EAF241524EF6020120F5342
:10060100851033AD0C7F01120655BF01E975230139
:10061100800B7BFF7A05790D7D01121640120EF9D0
:05062100121640AF239A
:10062600227D011216407D01AF0C1212547BFF7A17
:100636000479C87D010216407D011216407D01AF86
:0F0646000C1212547BFF7A0479C87D0102164012
:03179E007F0022A7
:100D5F00907FEEE0752300F524A3E0FEE4EE42233E
:100D6F001217AAEF7011F523F524907FB5F0907F3D
:100D7F00B4E030E21680F71217AAC3EF9524E4957A
:100D8F002350081217AA7523008F24E524452360EA
:100D9F004CC3E5249440E523940050088523258512
:100DAF00242680067525007526407E7F7F00AA06C3
:100DBF00A9077B01AD26120DF47525008F26907FB4
:100DCF00B5EFF0C3E5249526F524E5239525F52306
:100DDF00907FB4E020E2F9E526452570AEE4907FE0
:040DEF00B5F07F01DB
:010DF30022DD
:101213002074696D656F75740020627573790020A1
:10122300696E76616C696420706172616D65746565
:101233007200206E616B0020627573206572726F9D
:10124300720020696E76616C6964207374617465E1
:01125300009A
:0D11FA00011A000317000000011600C108D3
:101694007817E475F0011202FF12029E907FA6F003
:0916A40022907FA5E04440F022F1
:10173700C2E9A20A920792F9A20A92F9E4F51A22DB
:03004B0002091790
:10091700C0E0C0F0C083C082C085C084C086758631
:1009270000C0D075D000C000C001C002C003C0071E
:10093700907FA5E030E205751A018010907FA5E051
:1009470020E109E51A64066003751A02E51A24FC1A
:10095700500D600F14601D14603C14606A21DBC2E7
:10096700E921E3121694AF161516EF6401706D7541
:100977001A078068907FA6E0AB17AA18A919120278
:10098700B7751A06AF161516EF6401704F907FA55D
:10099700E04420F08046E516B40109907FA5E044C5
:1009A70020F0800DE51670093009031216A5751A97
:1009B70000907FA6E0FF7817E475F0011202FFEFC1
:1009C7001202B7151680153009031216A5751A00FD
:1009D700C2E980081216A5751A03C2E95391DFD040
:1009E70007D003D002D001D000D0D0D086D084D099
:0A09F70085D082D083D0F0D0E0322A
:08133E008B258A2689278D28E2
:10134600E529F52CE52AF52D7B007A00792C7533F5
:10135600027F01120655EF6401600122AB25AA2621
:0C136600A927852B33AD287F0312065504
:011372002258
:081373008F258B288A29892AA5
:10137B00ECF52CEDF52D7B007A00792C753302AD55
:10138B00257F01120655EF6401600122AB28AA29C3
:0C139B00A92A852B33AD257F02120655D0
:0113A7002223
:081436008B258A2689278D28E9
:10143E007B007A0079297533017F01120655EF641E
:10144E0001600122AB25AA26A927852A33AD287F64
:04145E00031206551A
:011462002267
:0A13A8008F258D268B278A288929BE
:1013B2007B007A007926753301AD257F011206552F
:1013C200EF6401600122AB27AA28A929852A33AD3F
:0613D200257F0212065502
:0113D80022F2
:100655008F2E8D2F8B308A31893212076C907FA5B2
:10066500E030E60B7F02121727EF60F1020759E52C
:100675001A600E7BFF7A12791C7D011216407FFFEE
:1006850022E52E64026007907FA5E04480F0D20940
:10069500853316853017853118853219E52E601D8D
:1006A500146018146030146005147041C209E52FF8
:1006B5004401907FA6F0751A058040C209E52F54C4
:1006C500FE907FA6F0E5167008300905751A0780BB
:1006D5002A751A048025E51660051216941516E587
:1006E500167005751A078013751A04800E7BFF7A3C
:1006F5001279227D011216407FFA22D2E912076C87
:10070500E51AD39403400B7F02121727EF60F1021D
:100715000759E51A14601B146007240270257F0130
:1007250022E4F51A7BFF7A1279357D011216407F96
:10073500FC22E4F51A7BFF7A12793A7D0112164004
:100745007FFD22E4F51A7BFF7A1279457D011216A9
:10075500407FFB22C20A1217377BFF7A1279137D7D
:10076500011216407FFE227D147C007F020216F0E6
:071788007586005391EF226A
:0301000002129355
:10129300C0E0C083C082C085C084C08675860090CC
:1012A3007FE8E020E70F907FEEE07004A3E06005A5
:1012B300907FC5E4F0D2035391EF907FAB7401F0BC
:0D12C300D086D084D085D082D083D0E03298
:0301040002161EC2
:10161E00C0E0C083C082C085C084C0861217889087
:10162E007FAB7402F0D086D084D085D082D083D0A8
:02163E00E03298
:0301080002000EE4
:10000E00C0E0C083C082C085C084C08612178890AD
:10001E007FAB7404F0D206D086D084D085D082D047
:04002E0083D0E03269
:03010C0002148B4F
:10148B00C0E0C083C082C085C084C086758600D290
:10149B00015391EF907FAB7408F0D086D084D08548
:0714AB00D082D083D0E032B3
:030110000214D8FE
:1014D800C0E0C083C082C085C084C08612178890CF
:1014E8007FAB7410F0C204D206D086D084D085D0E9
:0614F80082D083D0E03237
:030114000217A12E
:0317A100D206323B
:030118000217A427
:0317A400D2063238
:03011C000217A720
:0317A700D2063235
:030120000214FEC8
:1014FE00C0E0C083C082C085C084C08612178890A9
:10150E007FA97402F0D206D086D084D085D082D046
:04151E0083D0E03264
:030124000215229F
:10152200C0E0C083C082C085C084C0861217889084
:101532007FAA7402F0D206D086D084D085D082D021
:0415420083D0E03240
:0301280002154677
:10154600C0E0C083C082C085C084C0861217889060
:101556007FA97404F0D206D086D084D085D082D0FC
:0415660083D0E0321C
:03012C0002156A4F
:10156A00C0E0C083C082C085C084C086121788903C
:10157A007FAA7404F0D206D086D084D085D082D0D7
:04158A0083D0E032F8
:0301300002158E27
:10158E00C0E0C083C082C085C084C0861217889018
:10159E007FA97408F0D206D086D084D085D082D0B0
:0415AE0083D0E032D4
:030134000215B2FF
:1015B200C0E0C083C082C085C084C08612178890F4
:1015C2007FAA7408F0D206D086D084D085D082D08B
:0415D20083D0E032B0
:030138000215D6D7
:1015D600C0E0C083C082C085C084C08612178890D0
:1015E6007FA97410F0D206D086D084D085D082D060
:0415F60083D0E0328C
:03013C000215FAAF
:1015FA00C0E0C083C082C085C084C08612178890AC
:10160A007FAA7410F0D206D086D084D085D082D03A
:04161A0083D0E03267
:0B120700021B2000021D2000011F0040
:101640008B348A358936ED7003121747AB34AA35CF
:10165000A9361216DBAD07AB34AA35A936020CC881
:10125400EFC4540FFEEF540FFFEEC3940A5006740C
:10126400302EFE800474372EFEEFC3940A500674A9
:10127400302FFF800474372FFF8E258F26ED7003E7
:0E1284001217477B007A0079257D02120CC8F4
:011292002239
:101703008E488F498D4AE548FF121254AF49AD4ABE
:031713000212546B
:101747007E207F008E1B8F1C8E1D8F1EE4F51F22AF
:0317AA00AF1F224C
:080CC8008B378A3889398D3A17
:100CD000AE1BC37400951CF53BE53AC3953B500829
:100CE000853A3CE4F53B800A853B3CC3E53A953BBD
:100CF000F53BAF3C7E00A81CAC1B7D01AB37AA388E
:100D0000A9391203CBAF3C7E00EF251CF51CEE3554
:100D10001BF51BE53B602DFD7C00C004C005AB3717
:100D2000E5392FF9EE3538FA78007C207D01D007BF
:100D3000D0061203CB7400253BF582E43420AF8249
:100D4000F51B8F1CE53A251FF51FD3940074809482
:0E0D5000814009851B1D851C1EE4F51FAF3A6E
:010D5E002272
:080DF4008B278A2889298D2A2A
:100DFC00E52AD3951F4003851F2AAE1DC3740095A9
:100E0C001EF52BE52AC3952B5008852A2CE4F52BCF
:100E1C00800A852B2CC3E52A952BF52BAF2C7E0055
:100E2C00AA1DA91E7B01A829AC28AD271203CBAFA4
:100E3C002C7E00EF251EF51EEE351DF51DE52B60F5
:100E4C002FFD7C00C004C005E5292FF9EE3528A83C
:100E5C0001FCAD277B017A207900D007D006120364
:100E6C00CB7400252BF582E43420AF82F51D8F1E48
:090E7C00C3E51F952AF51FAF2AFA
:010E8500224A
:100BB000021716E493A3F8E493A34003F68001F22E
:100BC00008DFF48029E493A3F85407240CC8C33346
:100BD000C4540F4420C8834004F456800146F6DF15
:100BE000E4800B01020408102040809011D0E47EC4
:100BF000019360BCA3FF543F30E509541FFEE4930A
:100C0000A360010ECF54C025E060A840B8E493A3D0
:100C1000FAE493A3F8E493A3C8C582C8CAC583CAFB
:100C2000F0A3C8C582C8CAC583CADFE9DEE780BEB3
:0112120000DB
:10029E00BB010689828A83E0225002E722BBFE025E
:0902AE00E32289828A83E4932291
:1002B700BB010689828A83F0225002F722BBFE0126
:0202C700F32220
:0D02C900EF2BFFEE3AFEED39FDEC38FC2284
:1002D600EB9FF5F0EA9E42F0E99D42F0E89C45F07E
:0102E60022F5
:0C02E700E0FCA3E0FDA3E0FEA3E0FF228A
:0C02F300ECF0A3EDF0A3EEF0A3EFF0227E
:1002FF00FAE6FB0808E6F925F0F618E6CA3AF62200
:1016DB00E4FFFE12029E600C0FEF70010E09E97021
:0516EB00F20A80EF226D
:10030F00E709F608DFFA8046E709F208DFFA803ED0
:10031F0088828C83E709F0A3DFFA8032E309F608BD
:10032F00DFFA806EE309F208DFFA806688828C8339
:10033F00E309F0A3DFFA805A89828A83E0A3F608E3
:10034F00DFFA804E89828A83E0A3F208DFFA8042C7
:10035F0080D280FA80C680D4805580F280298010A8
:10036F0080A680EA809A80A880DA80E280CA8029FD
:10037F0088848C8589828A83E493A30586F0A305FC
:10038F0086DFF5DEF3800B89828A83E493A3F60878
:10039F00DFF9ECFAA9F0EDFB2288848C8589828A3B
:1003AF0083E0A30586F0A30586DFF6DEF480E389FC
:1003BF00828A83E493A3F208DFF980D688F0EF6096
:1003CF00010E4E60CD88F0ED2402B4040050C3F549
:1003DF0082EB2402B4040050B923234582239003F7
:0203EF005F733A
:00000001FF
